:020000040800F2
:10000000200D0020551B0008510D0008530D00085D
:10001000570D00085B0D00085F0D00080000000090
:10002000000000000000000000000000630D000858
:10003000650D000800000000670D0008690D00084C
:100040006F1B00086F1B00086F1B00086F1B000868
:100050006F1B00086F1B00086F1B00086F1B000858
:100060006F1B00086F1B00086F1B00086F1B000848
:100070006F1B00086F1B00086F1B00086F1B000838
:100080006F1B00086F1B00086F1B00086F1B000828
:100090006F1B00086F1B00086F1B00086F1B000818
:1000A0006F1B00086F1B00086F1B00086F1B000808
:1000B0006F1B00083B110008091500086F1B0008A2
:1000C0006F1B00086F1B00086F1B00086F1B0008E8
:1000D0006F1B0008631A00084D0F00080117000885
:1000E0006F1B00086F1B00086F1B00086F1B0008C8
:1000F0006F1B00086F1B00086F1B00086F1B0008B8
:100100006F1B00086F1B00086F1B00086F1B0008A7
:100110006F1B00086F1B00086F1B000813120008FC
:100120006F1B00086F1B00086F1B00086F1B000887
:1001300000F002F800F090F80AA090E8000C824469
:100140008344AAF10107DA4501D100F085F8AFF246
:10015000090EBAE80F0013F0010F18BFFB1A43F0A5
:1001600001031847A8560000C8560000103A24BFE3
:1001700078C878C1FAD8520724BF30C830C144BF0C
:1001800004680C607047000000230024002500264E
:10019000103A28BF78C1FBD8520728BF30C148BFEA
:1001A0000B6070476E2903F0AA84702903F0B582B2
:1001B000662905F0BE82652905F0BB82672905F036
:1001C000B8826129AFF3008003681B0A28BF41F0A1
:1001D0008001692903F02682642903F023827529AE
:1001E00003F020826F2903F09987782903F0818238
:1001F000E92903F03387E42903F03087F52903F078
:100200002D87EF2903F09687F82903F08082036891
:10021000DB0928BF41F08001632904F05B8073296A
:1002200004F06080E32904F06B80F32904F070800F
:10023000002070471FB503F0B9FF04000020002123
:1002400004F060FD401C60600020002104F044FDCB
:10025000E0601FBD10B510BD04F0F4F81146FFF7C3
:10026000E9FF00F00AFC04F01BF903B4FFF7F2FF0A
:1002700003BC01F09BFB00002DE9F04F95B0F7A106
:1002800003C9CDE9110114210CA803F079FB11A8D1
:100290000A9900F0D7FE4FF47A7001F05AFB0BA9CF
:1002A000F04800F0F3FE0020EF4908700CE0ED4844
:1002B000ED490978405C0CA9EB4A12788854EA4869
:1002C0000078401CE8490870E74800789DF82C1039
:1002D0008842ECDB0020E44908700CE00CA8E249FD
:1002E0000978405C682801D1DF480478DE4800784E
:1002F000401CDD490870DC4800789DF82C108842CD
:10030000ECDB0CA8005D68287ED10CA9201D085CE0
:10031000001108B1012500E000250CAA211D515C47
:1003200001F00F01642251430CAB621D9A5C121163
:1003300002EB820201EB4202611D595C01F00F01E8
:10034000501805F069F883460CAAA11D515C01F014
:100350000F0004F0C7FD0746C44AC54B04F0DAFDA0
:100360000CAACDE90601A11D515C081104F0BAFDEB
:10037000C04AC14BCDE9000104F0CCFDCDE902013A
:10038000584604F0AFFF0746DDE9022304F002FD02
:10039000CDE90401DDE9062304F0FCFCCDE9080108
:1003A00004F0C6FC834625B9B449584605F080F8E8
:1003B00083460CA9E01D085C001108B1012600E08D
:1003C00000260CAAE11D515C01F00F01642251438B
:1003D0000CAB04F108029A5C121102EB820201EBF1
:1003E000420204F10801595C01F00F01501805F0B8
:1003F00013F813900CAA04F10901515C01F00F00ED
:1004000004F070FD074600E0B5E0984A984B04F010
:1004100081FD0CAACDE9060104F10901515C081126
:1004200004F060FD0746934A934B04F073FDCDE959
:100430000201139804F056FFCDE90001DDE9022323
:1004400004F0A8FCCDE90401DDE9062304F0A2FCD8
:10045000CDE9080104F06CFC139026B1874913988C
:1004600005F026F813900CA904F10A00085C0011AD
:1004700010B14FF0010901E04FF000090CAA04F19E
:100480000A01515C01F00F01642251430CAB04F1ED
:100490000B029A5C121102EB820201EB420204F1A0
:1004A0000B01595C01F00F01501804F0B5FF8246B2
:1004B0000CAA04F10C01515C01F00F0004F012FDD4
:1004C00007466A4A6A4B04F025FD0CAACDE90601ED
:1004D00004F10C01515C081104F004FD0746654A63
:1004E000654B04F017FDCDE90201504604F0FAFE19
:1004F000CDE90001DDE9022304F04CFCCDE9040163
:10050000DDE9062304F046FCCDE9080104F010FC07
:100510008246B9F1000F04D05849504604F0C8FF94
:1005200082465749504604F08FFF05D25349504642
:1005300004F0BEFF824604E05146524805F084F8BC
:100540008246504604F0CEFE07468846584604F0E0
:10055000C9FECDE90801139804F0C4FECDE9027884
:10056000CDE90601DDE90801CDE9000146A0DDE99C
:10057000062303F023F815B0BDE8F08F70B5002511
:1005800001F082F80446002C66D00121444802F0B4
:100590001FFB4448008805280ADB4348006808B967
:1005A000012000E000204049086000203D4908800B
:1005B0003C48408805280CDB3B48001D006808B912
:1005C000012000E000203849091D0860002035495D
:1005D00048803448808805280CDB334808300068A0
:1005E00008B9012000E000202F49083108600020F0
:1005F0002C4988802B48C0880A280CDB2A481430F4
:10060000006808B9012000E0002027491431086083
:1006100000202449C880234800890A280ADB23488F
:10062000006808B9012000E000202049086000208F
:100630001C490881622C69D043DC302C72D037DC35
:10064000102C70D003DC44B1022C54D166E0182C7D
:100650006AD0222CF9D173E0D0E04BE068040004AA
:100660000800000004010020080000207B14AE47B1
:10067000E17A843F9A9999999999B93F000080BF8E
:10068000000034430000B443616E676C652C252E76
:1006900032662C252E32662C252E32660000000094
:1006A000000400406000002080812142800124423B
:1006B000382C74D0422C73D0522C72D05A2CC4D106
:1006C00095E0A82C50D00CDC902C56D004DC682C83
:1006D0005CD07A2CB9D17CE0982C63D0A22CB4D118
:1006E0000AE0B02C60D0C22C21D0E02C32D0E22C19
:1006F000ABD11AE0F6A580E0F7A5F948007808B973
:10070000012000E00020F649087076E0F5A5012000
:10071000F5490860F549C1F880016EE0F4A5FFF7DE
:10072000ABFD6AE04AE05EE051E0F3A565E0F5A5C7
:100730000120ED49091F0860EC49C1F884015CE023
:10074000F2A50020E849091F08600120E749C1F827
:10075000840152E0EFA50020E34908390860012038
:10076000E249C1F8880148E0ECA50020DE490860B4
:100770000120DE49C1F880013FE0EAA50120DA4905
:1007800008390860D949C1F8880136E0E7A5012099
:10079000D5490C390860D549C1F88C012DE024E019
:1007A00027E028E0E2A528E0E2A50020CE490C39A8
:1007B00008600120CD49C1F88C011EE0DEA50120B2
:1007C000C94910390860C949C1F8900115E0DBA595
:1007D00013E0DBA50020C449103908600120C3499B
:1007E000C1F8900109E0D7A507E0D7A505E0D7A596
:1007F00003E0D7A501E0D7A500BF10E00021D7484E
:1008000002F0E6F90020D6490860B849C1F8840131
:10081000D34908310860091D0860091D086070BDD2
:100820002DE9F04F87B005460E4617469846DDF88D
:100830004090002004900590069000240390A0456D
:1008400000DD4446A14500DD4C46A54200DD2C46B6
:10085000A64200DD3446A74200DD3C46002C75DD93
:100860004FF4C85060434FF4C87190FBF1FA4FEA5F
:100870004A00C0EB00104FEA400B002D07DDC4EB2F
:100880000410400090FBF5F080B2ADF81000002E8F
:1008900007DDC4EB0410400090FBF6F080B2ADF829
:1008A0001200002F07DDC4EB0410400090FBF7F0AE
:1008B00080B2ADF81400B8F1000F07DDC4EB0410EE
:1008C000400090FBF8F080B2ADF81600B9F1000FCF
:1008D00007DDC4EB0410400090FBF9F080B2ADF8E6
:1008E000180001209E4908608049C1F884019C4994
:1008F00008310860091D0860091D0860012197483A
:1009000002F066F96CE097480088BDF81010884244
:100910000DDBBDF8100050B19348006808B9012004
:1009200000E000209049086000208E4908808D4832
:100930004088BDF81210884210DBBDF8120068B183
:100940008948001D006810B9012001E08FE00020F7
:100950008549091D086000208249488081488088B7
:10096000BDF8141088420FDBBDF8140060B17E485A
:100970000830006808B9012000E000207A490831F9
:1009800008600020774988807648C088BDF8161036
:1009900088420FDBBDF8160060B173481430006860
:1009A00008B9012000E000206F49143108600020E0
:1009B0006C49C8806B480089BDF8181088420FDB6D
:1009C000BDF8180060B148483C38006808B90120FB
:1009D00000E0002044493C3908600020614908815A
:1009E0006248006858458ED300215C4802F0F0F858
:1009F00000205B4908603D49C1F88401584908312D
:100A00000860091D08603949C1F890013448007830
:100A100088B1BDF81800BDF81610BDF81420CDE956
:100A200000210290BDF81230BDF810204F48016837
:100A30004FA002F0C3FD00204C490860ADF8100043
:100A4000ADF81200ADF81400ADF81600ADF81800BE
:100A500000250026002780468146424908804880BC
:100A60008880C88008814BA002F0A8FD02E049A060
:100A700002F0A4FD07B0BDE8F08F08B500BF002567
:100A800000F02AFF4FF4A06001F084F84FF4E13049
:100A900000F09BFF00F010FC4FF4E13000F05FFE2F
:100AA00047210A2000F020FB00F0D4FC4FF4165040
:100AB00000F065FA00202A4908600C49C1F8840159
:100AC000274908310860091D0860091D08601BE1FD
:100AD0004552524F52000000504F574552000000FF
:100AE0000000002055500000BC0124420080234239
:100AF000504C415900000000414C49454E54454B73
:100B00000000000052494748540000004C4546543C
:100B100000000000564F4C2D00000000444F574E7F
:100B200000000000564F4C2B000000003100000078
:100B300032000000330000003400000035000000E7
:100B400036000000370000003800000039000000C7
:100B50003000000044454C4554450000000400406E
:100B60008081234260000020808121420400002017
:100B70000D0A42415345743D2564204D543D256482
:100B8000A3AC2564A3AC2564A3AC2564A3AC256405
:100B9000200000004F4B00005C48008800F400403B
:100BA00040B3002459480088C0F30D00441E0020C3
:100BB000574908552246574802F09DFEA5B200202D
:100BC000524908805448007898B100205349087071
:100BD0000BE04F48514A1278815C51A002F0EEFCC4
:100BE0004E480078401C4D4908704C480078A84297
:100BF000EFDB00BF052D7CDD46484B490860084609
:100C00000068008841F27E11884277D1464800682A
:100C1000807870B944480068C07844490860424808
:100C20000068417940480068007901EB00204049A4
:100C300008803D480068807901280FD13A48006853
:100C4000C0793A49091F086037480068417A364838
:100C50000068007A01EB00203649088032480068BD
:100C6000807A02280FD130480068C07A2F490839AD
:100C700008602D480068417B2B480068007B01EB31
:100C800000202D49088028480068807B03280FD168
:100C900025480068C07B25490C3908602248006857
:100CA000417C21480068007C01EB0020234908803A
:100CB0001D480068807C04280FD11B480068C07C58
:100CC0001A491039086018480068417D16480068C4
:100CD000007D01EB00201A49088019480088009027
:100CE0001648038814480288124801881048008872
:100CF00001E007E002E0FFF793FD02E011A002F03F
:100D00005DFC0025FFF73AFC46E7000048000020A4
:100D1000F4050020840000200000002008000020CE
:100D200025303258200000000C000020BC01244275
:100D300010000020120000201400002016000020E7
:100D40001800002073656E64206572726F72000077
:100D5000704700BFFEE700BFFEE700BFFEE700BF31
:100D6000FEE7704770477047704700000CB50020E1
:100D7000019000906C48006840F480306A49086037
:100D800000BF6948006800F4003000900198401CE2
:100D90000190009818B90198B0F5A06FF1D16248A0
:100DA000006800F4003010B10120009001E0002044
:100DB00000900098012843D15C48006840F0100082
:100DC0005A4908600846006820F003000860084699
:100DD000006840F00200086053484068524948608B
:100DE0000846406848600846406840F480604860B3
:100DF0000846406820F47C1048600846406840F48B
:100E0000E81048600846006840F08070086000BF45
:100E10004548006800F000700028F9D0424840685A
:100E200020F00300404948600846406840F0020056
:100E3000486000BF3C48406800F00C000828F9D129
:100E40000CBD10B5FFF792FF10BD10B53648006815
:100E500040F00100344908600846406834490840C1
:100E60003149486008460068324908402E49086008
:100E70000846006820F4802008600846406820F496
:100E8000FE0048604FF41F008860FFF7DAFF4FF064
:100E900000602949086010BD10B500210020002223
:100EA000214B5B6803F00C0121B1042906D008290D
:100EB00028D107E0214B224C236027E01F4B204C18
:100EC000236023E0184B5B6803F47010164B5B68DB
:100ED00003F48032022303EB904022B9194B4343C1
:100EE000174C23600DE0104B5B6803F4003323B113
:100EF000144B4343124C236003E0104B4343104C0C
:100F0000236003E00D4B0E4C236000BF00BF064B77
:100F10005B68C3F303130C4CE15C094B1B68CB40CB
:100F2000074C236010BD000000100240002002406A
:100F30000000FFF8FFFFF6FE08ED00E000127A0067
:100F40001C00002000093D002000002010B540F2E8
:100F500025515F4802F0DAFA80B15D4802F056FA96
:100F6000C4B25C480078402808DA5B4859490978DF
:100F7000445458480078401C5649087010BD10B5BC
:100F800086B004460121242001F08EF90121480495
:100F900001F097F98020ADF8140010208DF81700AB
:100FA00003208DF8160005A94C4800F0C1FE04206E
:100FB000ADF8140018208DF8170005A9484800F076
:100FC000B7FE0820ADF8140004208DF8170005A91D
:100FD000434800F0ADFE0121480401F08CF90021E6
:100FE0004FF4003001F087F901940020ADF80800BB
:100FF000ADF80A00ADF80C00ADF810000C20ADF80B
:101000000E0001A9324802F004F926208DF80000F4
:1010100003208DF801008DF8020001208DF80300F7
:10102000684600F0BCFD012240F22551284802F03C
:1010300088F90121264802F078F900202949086042
:1010400006B010BD70B505460E4601202549086062
:1010500000240CE000BF40211D4802F041FA0028A6
:10106000F9D0295D1A4802F0CDF9601CC4B2B4422F
:10107000F0DB00BF4021164802F032FA0028F9D018
:101080000020144908701749086070BD2DE9F0412F
:1010900007460D460F4806780024002028700A20D5
:1010A00000F057FC0B48007886420FD176B100BFA4
:1010B00004E00948005D3855601CC4B2B442F8DB56
:1010C000044800782870002002490870BDE8F081CB
:1010D00000440040300000200401002000140140C2
:1010E000000801409C8122427FB505460C46012143
:1010F000022001F0E6F8ADF80850ADF804400020F9
:10110000ADF80A00ADF8060001A9634801F004FA41
:1011100001221146604801F076FD1D208DF8000087
:1011200000208DF8010003208DF8020001208DF8C9
:101130000300684600F033FD7FBD10B5012156481D
:1011400002F00FF818B30121534802F01BF853487E
:101150000088401C5149088008464088401C48804F
:1011600008468088401C88800846C088401CC8808B
:1011700008460089401C088149480068401C4849CD
:1011800008604849884202D900204549086010BDDE
:1011900030B589B005460C460121022001F091F8D6
:1011A0000121092001F080F801213F4800F091FE63
:1011B0002020ADF8200018208DF8230003208DF8A2
:1011C000220008A9394800F0B3FDADF81850ADF879
:1011D00014400020ADF81A00ADF8160005A92E48FD
:1011E00001F09AF97020ADF804000120ADF8060076
:1011F0000020ADF80C0001A9274801F00CFA0821E5
:10120000254801F01EFE0121234801F0E1FC09B050
:1012100030BD10B50121264801F0A3FF68B1254873
:10122000008840F40040234908800121204801F053
:10123000A9FF00211E4801F0CBFC10BD7FB505467B
:101240000C460121202001F03CF8ADF80450ADF827
:1012500000400020ADF80600ADF8020069461448D1
:1012600001F05AF901221146114801F0CCFC01218C
:101270000F4801F0ADFC37208DF80C0000208DF8F0
:101280000D0002208DF80E0001208DF80F0003A83C
:1012900000F085FC7FBD00000004004060000020DD
:1012A000040000208096980000081A00000C0140FD
:1012B000001400403E00002008B501214FF4C47026
:1012C00000F0F2FF4FF40040ADF8000010208DF860
:1012D000030003208DF8020069465B4800F028FDFA
:1012E0004FF40041584800F0D0FD4FF48040ADF875
:1012F00000006946544800F01BFD4FF480415248FD
:1013000000F0C3FD4FF40050ADF8000069464E48B0
:1013100000F00EFD4FF400514B4800F0B6FD4FF4C5
:101320008050ADF800006946474800F001FD4FF4D9
:101330008051454800F0A9FD4FF40060ADF8000071
:101340006946414800F0F4FC4FF400613E4800F06B
:101350009CFD0120ADF8000069463C4800F0E8FC27
:1013600001213A4800F091FD0220ADF800006946E5
:10137000364800F0DDFC0221344800F086FD0420F0
:10138000ADF800006946314800F0D2FC04212F4836
:1013900000F07BFD0820ADF8000069462B4800F006
:1013A000C7FC0821294800F070FD1020ADF80000AE
:1013B0006946264800F0BCFC1021244800F065FD79
:1013C0002020ADF800006946204800F0B1FC202143
:1013D0001E4800F05AFD0120ADF8000069461C4887
:1013E00000F0A6FC01211A4800F04FFD0220ADF8E4
:1013F00000006946164800F09BFC0221144800F0EA
:1014000044FD0420ADF800006946114800F090FC4E
:1014100004210F4800F039FD2020ADF80000694696
:101420000B4800F085FC2021094800F030FD012028
:10143000ADF800006946044800F07AFC012102483A
:1014400000F023FD08BD000000200140001C014009
:10145000000C014000B589B00121082000F024FFF4
:101460000121042000F02DFF4FF40070ADF82000A2
:1014700028208DF8230003208DF8220008A9994820
:1014800000F056FC4FF40071964800F0FEFC42F26A
:101490001070ADF814004720ADF810000020ADF832
:1014A0001600ADF8120004A98F4801F035F80C20A1
:1014B000ADF804000020ADF806000120ADF80800EA
:1014C0000020ADF80A000320ADF80C0001A9864801
:1014D00001F0B5FA0121844801F07AFB1E208DF855
:1014E0001C0001208DF81D0003208DF81E00012036
:1014F0008DF81F0007A800F052FB012211217A4845
:1015000001F081FB09B000BD10B50121764801F062
:1015100028FEF8B17548007800F08000D0B173481B
:10152000007820F01000714908700846007800F03B
:101530000F0020B90846007840F0400008706B4862
:10154000007800F00F000E2805DA68480078401C8B
:10155000664908700AE06548007820F08000634919
:1015600008700846007800F0F000087010215E480E
:1015700001F0F7FD002810D05D48006870B102212D
:10158000594801F01DFD0021574801F0B5FD5748AD
:10159000007840F010005549087070E0524801F0A2
:1015A000CAFD5449088000214F4801F009FD4F4809
:1015B000007800F0100000285BD04C48007800F064
:1015C0008000E8B34B480088B0F5967F0DDD4948B0
:1015D0000088B0F5487F08DA47480068400046496F
:1015E000086008460068086043E042480088B0F59B
:1015F000AF6F0FDD3F480088B0F5E16F0ADA3E4873
:10160000006840003C4908600846006840F001005E
:1016100008602EE03748008840F69801884228DDAF
:101620003448008840F62821884222DA334800787E
:10163000401C324908702D48007800F0F00000E0AE
:1016400002E02A49087014E02A48008841F2680143
:1016500088420EDD2748008841F25C21884208DA82
:101660002248007840F0800020490870002023497B
:1016700008701E48007820F010001C4908701121E5
:10168000194801F07FFD10BD10B50020174B1B78E5
:1016900003F040032BB3184B1B68190E164B1B6845
:1016A000C3F30742D343DBB28B420BD151B9124B88
:1016B0001B88C3F30721104B1A78D343DBB28B424C
:1016C00000D1084620B1094B1B7803F0800343B9D1
:1016D000064B1B7823F04003044C23700023074C77
:1016E000237010BD000C01400008004034000020B1
:1016F0002481214236000020380000203C000020D8
:1017000010B540F225516E4801F000FFF8B16C4869
:1017100001F07CFEC4B26B48008800F40040B0B910
:1017200068480088B0F5167F12DA0021664801F09B
:10173000E3FC6448008818B90121634801F048FAC5
:1017400060490888411C5F4A118060490C5405E0DB
:101750005C48008840F400405A49088010BD10B52C
:1017600086B004460121082000F09EFD0121880476
:1017700000F0A7FD524801F009FD4FF48060ADF87C
:10178000100003208DF8120018208DF8130004A912
:101790004F4800F0CDFA4FF40060ADF8100004207F
:1017A0008DF8130004A94A4800F0C2FA0094002002
:1017B000ADF80400ADF80600ADF80800ADF80C0077
:1017C0000C20ADF80A0069463D4801F022FD0121D8
:1017D0003B4801F0AAFD012240F22551384801F0B2
:1017E000B0FD27208DF8140002208DF8150003208D
:1017F0008DF8160001208DF8170005A800F0CFF92C
:1018000041F61F4140F2E730FFF718FD00202D4957
:10181000088000212C4801F0DBF906B010BD0FB4A0
:1018200038B505A800902B48009A049901F0B4FE41
:1018300000200090274802F03FF885B200240DE018
:1018400000BF40211E4801F04BFE0028F9D021487E
:10185000015D1B4801F0D6FD601C84B2AC42EFDB99
:1018600038BC5DF814FB70B5044600250CE0615DE2
:10187000134801F0C7FD00BF4021114801F030FEC0
:101880000128F9D1681CC5B2605D0028EFD170BD98
:1018900070B504460D46002600BF0DE000BF402194
:1018A000074801F01DFE0128F9D114F8011B044876
:1018B00001F0A8FD701CC6B2AE42EFDB70BD0000A7
:1018C000004800403E000020001400404401002079
:1018D000000C01409C03002010B56FF0040000F0E4
:1018E000A8F92E4800682E49B0FBF1F02D49087088
:1018F0000846007800EB4001C1EBC0104FF6FF71C5
:1019000001EAC0002849088010BD0146254A127826
:101910004A434FF0E0235A6100229A611A46126945
:1019200042F001021A6100BF4FF0E022106900F09E
:1019300001021AB100F48032002AF5D04FF0E02203
:10194000126922F001024FF0E0231A6100229A612D
:1019500070470146144A12884A434FF0E0235A6107
:1019600000229A611A46126942F001021A6100BF10
:101970004FF0E022106900F001021AB100F4803249
:10198000002AF5D04FF0E022126922F001024FF058
:10199000E0231A6100229A61704700001C000020B9
:1019A00000127A004000002042000020014600BFE3
:1019B000704700BF634A128802F04002002AF9D043
:1019C000C2B2604B1B1D1A80704710B586B004462A
:1019D000012144F2040000F067FC4FF40070ADF800
:1019E000140003208DF8160018208DF8170005A9A3
:1019F000554800F09DF94FF48060ADF814000420C4
:101A00008DF8170005A9504800F092F925208DF8AF
:101A1000000003208DF801008DF8020001208DF8F0
:101A20000300684600F0BBF801940020ADF8080000
:101A3000ADF80A00ADF80C00ADF810000C20ADF8C0
:101A40000E0001A93F4801F0E4FB012240F22551BC
:101A50003C4801F076FC01213A4801F066FC06B0F2
:101A600010BD10B540F22551364801F04FFD002859
:101A70004FD0344801F0CAFCC4B23448008800F4A6
:101A80000040002845D13148008800F48040D8B19A
:101A90000A2C12D02D4800884BF6FF7108402B49C4
:101AA000088008460088C0F30D0029490C542748D7
:101AB0000088401C254908802BE02448008840F419
:101AC00000402249088024E00D2C11D11F480088D5
:101AD00040F480401D49088008460088C0F30D008E
:101AE0001B490C5419480088401C1849088010E014
:101AF00016480088C0F30D0015490C54134800889F
:101B0000401C1249088008460088C72801DD0020D3
:101B1000088010BD70B504460D46002600BF0DE0DC
:101B200000BF4021074801F0DBFC0128F9D114F87F
:101B3000011B044801F066FC701CC6B2AE42EFDB2C
:101B400070BD00000038014000080140480000203E
:101B5000F40500200948804709480047FEE7FEE7F2
:101B6000FEE7FEE7FEE7FEE7FEE7FEE7FEE7FEE74D
:101B700004480549054A064B704700004B0E000813
:101B80003101000820070020200D0020200900203E
:101B90002009002031490143314A1160704770B576
:101BA000002100230F22C47804B32D4C246804F4D0
:101BB000E064C4F5E064210AC1F10403CA4044783A
:101BC00004FA03F18478144021430901254C067876
:101BD000A155047804F01F050124AC4005786D116F
:101BE000AD0005F1E025C5F8004109E0047804F0F6
:101BF0001F050124AC401C4D0678761145F826409F
:101C000070BD1A4A0A400243154B1B1F1A607047E9
:101C100039B1134A121D12680243114B1B1D1A6081
:101C200006E00F4A121D126882430D4B1B1D1A60FD
:101C30007047042808D14FF0E021096941F0040100
:101C40004FF0E022116107E04FF0E021096921F037
:101C500004014FF0E0221161704700000000FA0516
:101C60000CED00E000E400E080E100E080FFFF1FF9
:101C700010B50446CC48844208D10121042000F06C
:101C80002DFB0021042000F029FB46E0C7488442D8
:101C900008D10121082000F021FB0021082000F0DC
:101CA0001DFB3AE0C248844208D10121102000F017
:101CB00015FB0021102000F011FB2EE0BD488442EE
:101CC00008D10121202000F009FB0021202000F094
:101CD00005FB22E0B848844208D10121402000F0F1
:101CE000FDFA0021402000F0F9FA16E0B3488442E2
:101CF00008D10121802000F0F1FA0021802000F0BD
:101D0000EDFA0AE0AE48844207D10121801500F0C7
:101D1000E5FA0021A01500F0E1FA10BD10B501218F
:101D2000084600F0DBFA0021012000F0D7FA10BDD0
:101D30002DE9F04102460025002600200023002462
:101D4000002791F803C00CF00F0591F803C00CF0C8
:101D5000100CBCF1000F03D091F802C04CEA05054D
:101D600091F800C0BCF1000F31D0146800202BE0C6
:101D70004FF0010C0CFA00F3B1F800C00CEA0306B6
:101D80009E4220D183004FF00F0C0CFA03F7BC43A6
:101D900005FA03FC4CEA040491F803C0BCF1280FD7
:101DA00006D14FF0010C0CFA00FCC2F814C00AE096
:101DB00091F803C0BCF1480F05D14FF0010C0CFAAB
:101DC00000FCC2F810C0401C0828D1D31460B1F840
:101DD00000C0BCF1FF0F34DD546800202EE000F19C
:101DE000080C4FF0010808FA0CF3B1F800C00CEA37
:101DF00003069E4221D183004FF00F0C0CFA03F72B
:101E0000BC4305FA03FC4CEA040491F803C0BCF19E
:101E1000280F05D100F1080C08FA0CF8C2F814805C
:101E200091F803C0BCF1480F07D100F1080C4FF046
:101E3000010808FA0CF8C2F81080401C0828CED31C
:101E40005460BDE8F0814FF6FF710180022181707E
:101E50000421C17070470246002093680B400BB10B
:101E6000012000E0002070470146886880B270477A
:101E700002460020D3680B400BB1012000E0002097
:101E800070470146C86880B2704701617047416180
:101E900070470AB1016100E041617047C16070475D
:101EA0004FF480320A438261816182618269826972
:101EB000704702460020434B18684FF68073184065
:101EC00040EA021008433F4B186070473E49C86122
:101ED0007047F0B50A46002300240021002500F0D9
:101EE0000046B6F1004F02D1364EF16901E0354EA1
:101EF0007168C0F3034583B200F44016B6F5401F85
:101F000008D121F070612F4E766826F070662D4F53
:101F10007E6012E000F48016B6F5801F06D103261D
:101F200006FA05F4A14341F0706106E0460D360162
:101F300003FA06F6B14341F0706122B1460D360155
:101F400003FA06F6314300F00046B6F1004F02D125
:101F50001C4EF16101E01B4E7160F0BD30B50022F6
:101F60008B071C0F0F2303FA04F2164B08338C1057
:101F700053F824309343134C08348D1044F8253023
:101F800023468C1053F824308C07240F00FA04F4F5
:101F900023430C4C08348D1044F8253030BD0A49D9
:101FA000DC3108607047000000080140000C01406F
:101FB000001001400014014000180140001C0140C5
:101FC000002001400000014000002042DF4800687E
:101FD00040F00100DD49086008464068DC490840DF
:101FE000DA49486008460068DA490840D74908607D
:101FF0000846006820F4802008600846406820F405
:10200000FE0048604FF41F0088607047CF490968A0
:1020100021F48031CD4A11601146096821F48021F4
:102020001160B0F5803F03D0B0F5802F0ED106E0EF
:10203000C649096841F48031C44A116007E0C349C8
:10204000096841F4A021C14A116000E000BF00BF4F
:10205000704710B501460022002300204A11012AD2
:1020600002D1BA4C236806E0022A02D1B74C236A97
:1020700001E0B64C636A01F01F02012494401C4049
:102080000CB1012000E0002010BD38B50020009008
:102090000024002500BF3120FFF7DBFF0546009834
:1020A000401C00900098B0F5A06F01D0002DF2D038
:1020B0003120FFF7CEFF08B1012400E000242046C4
:1020C00038BD01460020A14A106820F0F80040EA1F
:1020D000C10010607047A0490860704702460020A8
:1020E0009A4B586820F47C1042EA01031843974B3E
:1020F0005860704798490866704701460020934A27
:10210000506820F003000843506070478F484068D3
:1021100000F00C007047014600208C4A506820F007
:10212000F00008435060704701460020874A50681D
:1021300020F4E06008435060704701460020834A65
:10214000506820F4605040EAC1005060704729B1E7
:102150007E4A527A02437D4B5A7204E07B4A527A9D
:1021600082437A4B5A7270477B49D8310860704776
:1021700001460020754A506820F4404008435060F2
:1021800070470021714A20321170704A82F8201085
:10219000012802D004280AD104E001216B4A203230
:1021A000117005E00521694A2032117000E000BF7E
:1021B00000BF70476949086070476449096A014374
:1021C000624A11627047654944390860704730B50A
:1021D00000210022002400235C4D6D6805F00C01F5
:1021E00021B1042905D0082923D105E05C4D056003
:1021F00022E05B4D05601FE0544D6D6805F47012E0
:10220000524D6D6805F48034022505EB92421CB9ED
:10221000544D554305600BE04C4D6D6805F4003599
:102220001DB1504D5543056002E04D4D55430560CD
:1022300002E04B4D056000BF00BF444D6D6805F0E6
:10224000F0010909484D6B5C0568DD4045603F4D74
:102250006D6805F4E061090A434D6B5C4568DD403B
:1022600085603A4D6D6805F46051C90A3E4D6B5C5E
:102270004568DD40C560354D6D6805F44041890B0A
:102280003A4D6B5CC568B5FBF3F5056130BD29B10E
:102290002E4A526902432D4B5A6104E02B4A52697F
:1022A00082432A4B5A61704729B1284A92690243F6
:1022B000264B9A6104E0254A92698243234B9A6136
:1022C000704729B1214AD2690243204BDA6104E008
:1022D0001E4AD26982431D4BDA61704729B11B4AFD
:1022E000D2680243194BDA6004E0184AD26882438C
:1022F000164BDA60704729B1144A12690243134B36
:102300001A6104E0114A12698243104B1A61704746
:1023100012494039086070470F49C86470470B493B
:10232000C87170470948406A40F0807007494862A8
:10233000704701460020054A92680A400AB1012010
:1023400000E0002070470149887270470010024089
:102350000000FFF8FFFFF6FE000042428004424208
:1023600000127A0000093D004A0000205A000020B7
:1023700010B50446FE48844208D10121C014FFF77D
:10238000ADFF0021E014FFF7A9FFC4E0B4F1804FD6
:1023900008D101210846FFF7AEFF00210120FFF719
:1023A000AAFFB8E0F348844208D101210220FFF7D8
:1023B000A2FF00210220FFF79EFFACE0EE4884421E
:1023C00008D101210420FFF796FF00210420FFF728
:1023D00092FFA0E0E948844208D101210820FFF7DC
:1023E0008AFF00210820FFF786FF94E0E44884423A
:1023F00008D101211020FFF77EFF00211020FFF7F8
:102400007AFF88E0DF48844208D101212020FFF7CD
:1024100072FF00212020FFF76EFF7CE0DA48844243
:1024200008D101214014FFF759FF00216014FFF784
:1024300055FF70E0D548844209D10121C804FFF757
:102440004DFF00214FF40020FFF748FF63E0D04824
:10245000844209D101210805FFF740FF00214FF414
:102460008010FFF73BFF56E0CA48844209D10121A2
:102470004805FFF733FF00214FF40010FFF72EFF50
:1024800049E0C548844208D101214020FFF733FFCD
:1024900000214020FFF72FFF3DE0C048844208D1D3
:1024A00001218020FFF727FF00218020FFF723FF75
:1024B00031E0BB48844208D101218015FFF71BFFA2
:1024C0000021A015FFF717FF25E0B648844209D187
:1024D00001210804FFF702FF00214FF48030FFF7CD
:1024E000FDFE18E0B048844209D101214804FFF7FD
:1024F000F5FE00214FF40030FFF7F0FE0BE0AB4893
:10250000844208D101218804FFF7E8FE00214FF43E
:102510008020FFF7E3FE10BD00220288944B984212
:102520000ED0994B98420BD0B0F1804F08D0914B10
:10253000984205D0904B984202D0904B984204D1DB
:102540004FF68F731A404B881A438D4B984207D031
:102550008C4B984204D04FF6FF431A40CB881A4365
:1025600002808B8883850B880385814B98420BD032
:10257000854B984208D08B4B984205D08A4B9842A5
:1025800002D08A4B984201D10B7A038601238382C1
:10259000704770B5002400220023058C4FF6FE76AC
:1025A00035400584028C8388048B4FF68F752C4050
:1025B000B51E2C400D882C43751E2A400D892A43D8
:1025C0004D882A436A4DA8420BD06F4DA84208D0CF
:1025D000744DA84205D0744DA84202D0734DA84254
:1025E00013D14FF6F7752A404D892A434FF6FB75F4
:1025F0002A408D882A434FF6FF652B404FF6FF5542
:102600002B408D892B43CD892B4383800483CD8838
:102610008586028470BD70B5002400220023058CDD
:102620004FF6EF7635400584028C8388048B48F69C
:10263000FF752C404FF6FF452C400D884FF6FF7676
:1026400006EA05252C434FF6DF752A400D8906EA78
:1026500005152A434D8806EA05152A43444DA8422C
:1026600002D0494DA8421DD14FF67F752A404D89B1
:102670004FF6FF7606EA05152A434FF6BF752A4046
:102680008D8806EA05152A434FF6FF352B404FF299
:10269000FF752B408D8906EA85052B43CD8906EA17
:1026A00085052B4383800483CD880587028470BD14
:1026B00070B5002400220023058C4FF6FF663540DC
:1026C0000584028C8388848B4FF68F752C404FF6DF
:1026D000FC752C400D882C434FF6FF552A400D8980
:1026E0004FF6FF7606EA05252A434D8806EA0525BA
:1026F0002A431F4DA84202D0234DA8421DD14FF2BC
:10270000FF752A404D894FF6FF7606EA05252A43D4
:102710004FF6FF352A408D8806EA05252A434EF6F6
:10272000FF752B404DF6FF752B408D8906EA051588
:102730002B43CD8906EA05152B4383808483CD88FE
:102740008587028470BD70B5002200230024058CAB
:102750004EF6FF7635400584038C8488828B48F6DC
:10276000FF752A404FF6FF452A400D8820E0000003
:10277000002C01400004004000080040000C004014
:10278000001000400014004000340140004C0140A3
:10279000005001400054014000180040001C00405F
:1027A000002000400040014000440140004801403A
:1027B0004FF6FF7606EA05252A434DF6FF752B40B6
:1027C0000D8906EA05352B434D8806EA05352B436E
:1027D000FA4DA84202D0FA4DA84208D14BF6FF7537
:1027E0002C408D894FF6FF7606EA85152C438480B0
:1027F0008283CD88A0F84050038470BD828B4FF255
:10280000FF331A408283828B4FF6FF7303EA012362
:102810001A4382837047F0B50C461546002200210A
:102820000026078C4EF6FF7C07EA0C070784828B94
:10283000018C4FF6FF7707EA043640F6FF473A402F
:102840004FF6FF7707EA05273A434FF6FF7707EA87
:1028500003373A43D94FB8420ED0D94FB8420BD0C4
:10286000B0F1804F08D0D74FB84205D0D64FB8420C
:1028700002D0D64FB84206D14DF6FF77394046F424
:102880008057394305E047F6FF57394044F48057F5
:10289000394382830184F0BD828B4FF6F3731A4073
:1028A0008283828B0A4382837047F0B50C461546BB
:1028B000002200210026078C4FF6FF6C07EA0C0768
:1028C0000784828B018C4FF6FF7707EA04264FF6C8
:1028D0000C773A404FF6FF7707EA03172F433A4346
:1028E000B64FB8420ED0B64FB8420BD0B0F1804FC1
:1028F00008D0B44FB84205D0B34FB84202D0B34F5E
:10290000B84206D14FF6FF57394046F48077394335
:1029100005E04FF2FF57394044F480773943828312
:102920000184F0BD028B4FF2FF331A400283028B09
:102930004FF6FF7303EA01231A4302837047F0B591
:102940000C461546002200210026078C4FF6EF7C2E
:1029500007EA0C070784028B018C4FF6FF7707EA22
:10296000041640F6FF473A404FF6FF7707EA033771
:102970003A434FF6FF7707EA05273A438F4FB842AD
:102980000ED08F4FB8420BD0B0F1804F08D08D4F92
:10299000B84205D08C4FB84202D08C4FB84206D115
:1029A0004FF6DF77394046F01007394305E04FF620
:1029B0005F77394044F01007394302830184F0BD4A
:1029C000028B4FF6F3731A400283028B0A43028391
:1029D0007047F0B50C46154600220021068C4FF6D4
:1029E000FE773E400684028B018C4FF60C76324017
:1029F0007E1C06EA03162E433243704EB0420ED0C0
:102A00006F4EB0420BD0B0F1804F08D06D4EB04247
:102A100005D06D4EB04202D06C4EB04206D14FF69A
:102A2000FD76314044F00106314305E04FF6F5767E
:102A3000314044F00106314302830184F0BD70B59A
:102A400005460C465D4885420ED05D4885420BD058
:102A5000B5F1804F08D05B48854205D05A48854281
:102A600002D05A48854200D100E000BF208850B90A
:102A70002389A28861882846FFF7ABFFE1882846B2
:102A8000FFF79EFF25E0208804280AD12389A28829
:102A900061882846FFF753FFE1882846FFF742FF89
:102AA00017E0208808280AD12389A288618828464F
:102AB000FFF7FBFEE1882846FFF7EEFE09E02389D9
:102AC000A28861882846FFF7A6FEE1882846FFF71E
:102AD00095FE70BD2DE9F04105460C460026012704
:102AE000608808B9022600E00026A088012801D1EC
:102AF000022700E001272088A0B92389A2886188E5
:102B00002846FFF766FFE1882846FFF759FF23892B
:102B10003A4631462846FFF712FFE1882846FFF77C
:102B200001FF13E02389A28861882846FFF707FF89
:102B3000E1882846FFF7F6FE23893A4631462846C3
:102B4000FFF747FFE1882846FFF73AFFBDE8F0812D
:102B50000A884B881A438B881A43CB881A430B89FF
:102B60001A434B891A438B891A43A0F844207047B3
:102B70004FF6FF71818000210180C1804180017288
:102B800070470021018041808180C18001814181A5
:102B90008181C181704700210180418001218180B4
:102BA0000021C18001817047002101804180818026
:102BB000C18001814181818170470000002C01406A
:102BC000003401400004004000080040000C0040B8
:102BD00021B1028842F00102028004E002884FF62F
:102BE000FE731A400280704731B1B0F8442042F4BD
:102BF0000042A0F8442005E0B0F84420C2F30E02E1
:102C0000A0F8442070471AB183890B43838102E006
:102C100083898B43838170478182704741EA020335
:102C2000A0F8483070471AB183890B43838102E0D2
:102C300083898B438381704701894FF6F872114075
:102C4000018170470A46002101894FF68F731940B0
:102C500011430181704730B504460D462946204690
:102C6000FFF7F0FF208940F00700208130BD2DE9FB
:102C7000F04104460D4616461F46602D06D13B46E0
:102C8000012231462046FFF75AFE05E03B4601226D
:102C900031462046FFF79DFE29462046FFF7D2FF2A
:102CA000208940F007002081BDE8F08130B50C4656
:102CB00000210189C9B24FF6FF7505EA03251543C6
:102CC00025432943018130BD2DE9F04105460E46DB
:102CD00017469846002443463A4631462846FFF7B1
:102CE000E5FF2C894FF6F870044044F007044FF6D6
:102CF0008F70044044F070042C81BDE8F081F0B581
:102D000004460D4616461F463B4632462946204697
:102D1000FFF7CCFF208940F480402081F0BD018581
:102D2000828270470A46002101884FF68F7319404E
:102D3000114301807047F0B50C4615461E46002130
:102D4000002200230189028B038C4FF6F87739406B
:102D500021434FF6FC473A4040F201173A434FF601
:102D6000DD773B404FF6FF7707EA06172F433B43DB
:102D7000018102830384F0BD0A460021018B4FF6D6
:102D80008F7319401143018370470A460021018B5C
:102D900048F6FF7319404FF6FF7303EA0223194305
:102DA000018370470A460021818B4FF68F731940CB
:102DB0001143818370470A460021818B48F6FF73D7
:102DC00019404FF6FF7303EA0223194381837047CA
:102DD00021B1028842F08002028004E002884FF6AE
:102DE0007F731A400280704721B1828842F004024A
:102DF000828004E082884FF6FB731A40828070471D
:102E000021B1828842F00802828004E082884FF675
:102E1000F7731A408280704721B1828842F0010224
:102E2000828004E082884FF6FE731A4082807047E9
:102E30000A460021018B4FF6F773194011430183B5
:102E400070470A460021018B4FF2FF7319404FF67D
:102E5000FF7303EA02231943018370470A460021E6
:102E6000818B4FF6F77319401143818370470A46EF
:102E70000021818B4FF2FF7319404FF6FF7303EA75
:102E800002231943818370470A460021018B4FF6C4
:102E9000FB7319401143018370470A460021018BDF
:102EA0004FF6FF3319404FF6FF7303EA022319432D
:102EB000018370470A460021818B4FF6FB7319404E
:102EC0001143818370470A460021818B4FF6FF33FF
:102ED00019404FF6FF7303EA0223194381837047B9
:102EE0000A460021018B4FF67F731940114301837D
:102EF00070470A460021018BC1F30E014FF6FF73A4
:102F000003EA02231943018370470A460021818B9B
:102F10004FF67F7319401143818370470A460021A1
:102F2000818BC1F30E014FF6FF7303EA02231943AD
:102F3000818370470A460021018C4FF6FD731940CA
:102F40001143018470470A460021018C4FF6F77344
:102F500019401143018470470A460021018C4FF645
:102F6000DF7319404FF6FF7303EA0213194301841C
:102F700070470A460021018C4FF67F7319404FF6C7
:102F8000FF7303EA02131943018470470A460021C4
:102F9000018C4FF6FF5319404FF6FF7303EA0223EB
:102FA0001943018470470A460021018C4FF2FF73D8
:102FB00019404FF6FF7303EA022319430184704757
:102FC0000A460021018C4DF6FF7319404FF6FF733E
:102FD00003EA023319430184704730B5002301240A
:102FE0008C40A3B2048C9C430484048C02FA01F547
:102FF000ADB22C43048430BD30B5002304248C4092
:10300000A3B2048C9C430484048C02FA01F5ADB293
:103010002C43048430BD70B50346002000241846BC
:10302000183001258D40ACB21D8CA5431D8409B11B
:10303000082909D100EB6100056825F070050560DD
:103040000568154305600EE00D1FC5F34E052844C5
:10305000056825F4E045056005684FF6FF7606EA49
:1030600002263543056070BD21B1028842F002029C
:10307000028004E002884FF6FD731A400280704718
:1030800021B1028842F00402028004E002884FF677
:10309000FB731A400280704721B1828842F080029F
:1030A000828004E082884FF67F731A4082807047E6
:1030B00002884FF6F7731A40028002880A430280A2
:1030C000704782884FF68F731A40828082880A4345
:1030D0008280704702894FF6F8731A400281028994
:1030E0000A430281704702894FF67F731A400281BA
:1030F00002890A4302817047818470478185704745
:10310000818670470187704781877047A0F840101B
:10311000704702884FF6FF431A40028002880A4334
:10312000028070470146888E70470146088F7047BD
:103130000146888F70470146B1F84000704701464C
:10314000888C70470146088D704702460020138A1C
:103150000B400BB1012000E000207047CA430282FF
:10316000704730B50246002000230024158A05EA86
:103170000103958905EA010413B10CB1012000E0B7
:10318000002030BDCA4302827047000010B50446DB
:10319000FB48844209D101218803FFF79FF80021F1
:1031A0004FF48040FFF79AF832E0F648844209D1A4
:1031B00001214804FFF79FF800214FF40030FFF78A
:1031C0009AF825E0F048844209D101218804FFF7EC
:1031D00092F800214FF48020FFF78DF818E0EB48BB
:1031E000844209D10121C804FFF785F800214FF47A
:1031F0000020FFF780F80BE0E548844208D1012168
:103200000805FFF778F800214FF48010FFF773F8F6
:1032100010BD2DE9F04786B005460E460024A246B3
:1032200000BFA1460027B08900B100BF2F462C8AFD
:103230004CF6FF700440F08804432C82AC894EF6B3
:10324000F3100440B088318908437189084304436E
:10325000AC81AC8A4FF6FF400440B0890443AC8295
:1032600001A8FEF7B4FFC648874202D1DDF810A0DE
:1032700001E0DDF80CA0A88900F4004040B10AEBA1
:10328000CA0000EB0A1031684900B0FBF1F807E012
:103290000AEBCA0000EB0A1031688900B0FBF1F8B4
:1032A0006420B8FBF0F004012009642101FB1089BF
:1032B000A88900F4004040B1322000EBC900B0FB07
:1032C000F1F000F00700044308E0322000EB0910A1
:1032D0006421B0FBF1F000F00F0004432C8106B034
:1032E000BDE8F0874FF41651016000218180C18054
:1032F00001810C21418100218181704710B5024676
:103300000020108A4FF2FF0318400B884C8823439B
:103310008C882343CC8823431843108210BD00219E
:10332000018041808180C180704721B1828942F44F
:103330000052828104E082894DF6FF731A40828137
:103340007047F0B50346002400260025002040F613
:103350006A17B94200D100BF1846C1F3421401F008
:103360001F06012707FA06F5012C01D10C3004E0F5
:10337000022C01D1103000E014301AB107682F433D
:10338000076002E00768AF430760F0BD1AB1838AA7
:103390000B43838202E0838A8B4383827047028AD5
:1033A0004FF6F0731A400282028A0A430282704783
:1033B00082894FF2FF731A40828182890A43828197
:1033C000704721B1828942F00202828104E0828941
:1033D0004FF6FD731A4082817047028A4FF6DF7301
:1033E0001A400282028A0A430282704721B1028A8D
:1033F00042F48042028204E0028A4BF6FF731A40D4
:1034000002827047C1F308028280704701468888B3
:10341000C0F308007047818941F001018181704744
:10342000028BD2B20283028B42EA012202837047EE
:10343000028B02F47F420283028B0A4302837047AD
:1034400021B1828A42F02002828204E0828A4FF611
:10345000DF731A408282704721B1828A42F01002E3
:10346000828204E0828A4FF6EF731A4082827047AC
:1034700021B1828A42F00802828204E0828A4FF6F9
:10348000F7731A408282704721B1828942F4004268
:10349000828103E08289C2F30E028281704721B1EA
:1034A000828A42F40062828204E0828A4FF2FF73D1
:1034B0001A4082827047828A4FF6FB731A408282DA
:1034C000828A0A438282704721B1828A42F00202D4
:1034D000828204E0828A4FF6FD731A40828270472E
:1034E00002460020B1F5007F00D100BF13880B40D9
:1034F0000BB1012000E00020704701F40072B2F52A
:10350000007F00D100BFCA430280704770B50246F9
:10351000002400230025002040F66A16B14200D1A5
:1035200000BFC1F3421501F01F03012606FA03F3A1
:10353000012D02D19689334006E0022D02D1168A70
:10354000334001E0968A33400C12012606FA04F457
:103550001688344013B10CB1012000E0002070BD8A
:1035600010B50022002340F66A14A14200D100BF2A
:103570000A1201249440A3B2DC43048010BD000071
:10358000003801400044004000480040004C00402A
:1035900000500040704700001CB50C46064B7B44B1
:1035A00069460090204600F0D0FC044600206946A1
:1035B00000F0DEFC20461CBDCF0900000FB404491A
:1035C00010B503AA029800F0D9FC10BC5DF814FBFA
:1035D0004400002070B5044685690068C10601D525
:1035E000302600E02026C00707D070BDD4E90121B5
:1035F00030469047206A401C20626D1EF6D570BD93
:1036000070B5044685690078C00707D170BDD4E95C
:10361000012120209047206A401C20626D1EF6D5B3
:1036200070BD00002DE9F0410646002410687529A0
:10363000314616A510D000F0CEF9002802DA40423B
:1036400013A507E031688A0701D512A502E04907F2
:1036500004D511A5012401E000F0C6F900210A22D9
:1036600006F1240709E0B0FBF2FCB0FBF2F302FB29
:103670001C00303078541846491C0028F3D12346EA
:103680002A463046BDE8F04100F0E0B900000000F5
:103690002D0000002B00000020000000F0B40D46BB
:1036A0000188090502D5214C7C4402E01F4C7C4472
:1036B0000E34002100F1240608E002F00F07120981
:1036C000E75D42EA03721B097754491C52EA03077B
:1036D000F3D102780023120704D5702D06D009B16A
:1036E000022311342246F0BC00F0B0B9012310349B
:1036F000F8E770B504460D462146106800F074F9ED
:10370000024629462046BDE870400023C6E7D21D88
:1037100022F00703D3E90023C0E70368126843F0EF
:10372000200303600823C3610023B7E78A20000059
:103730002DE9F05F894604464FF0000ADFF874B1C6
:10374000FB44C0F820A02046E1688847002874D0D8
:10375000252806D0D4E901219047206A401C206228
:10376000F1E700265F462046E168884720280546A5
:1037700007DB312D05D2781910F8200C08B106436B
:10378000F1E7B00701D526F00406C4F81CA0002715
:10379000C4F818A02A2D09D0284601F096FA38B3AB
:1037A00004EB8708303DC8F8185019E059F8041B9D
:1037B000204604EB87029161E1688847012F0546A6
:1037C00018D1E069002820DA26F020061DE0D8F89C
:1037D000180000EB800005EB40003038C8F81800F6
:1037E0002046E1688847054601F06FFA0028EED1CF
:1037F000012F0AD02E2D08D12046E16888477F1C72
:103800000546022F46F02006C4DBA069002803DA33
:10381000404246F00106A061F00701D026F01006F4
:103820006C2D0BD0682D09D04C2D39D06A2D35D098
:10383000742D35D07A2D33D016E038E0E1682F466C
:1038400020468847B842054609D16C2F26D04FF450
:103850008060E168064320468847054604E06C2FF7
:103860001AD04FF4807006430DB3A5F1410019281A
:1038700002D8203546F400664A462946204626608E
:103880004E46FCF78FFC80B101280BD0F61D26F0C8
:10389000070000F1080956E74020E4E78020D8E758
:1038A0000020D6E706F104094DE7284652E7206AD2
:1038B000BDE8F09F1A20000010B5431C02E010F88C
:1038C000011B71B18107FAD14FF0013202C88C1A85
:1038D0008C4314EAC211F9D0C01A0A0603D0C01EE4
:1038E00010BDC01A10BD0A0401D0801E10BD09020F
:1038F000FCD0401E10BD032A40F2308010F0030CB3
:1039000000F0158011F8013BBCF1020F624498BF32
:1039100011F801CB00F8013B38BF11F8013BA2F1CF
:10392000040298BF00F801CB38BF00F8013B11F04A
:10393000030300F00984083AC0F0088051F8043B02
:10394000083A51F804CBA0E80810F5E7121D5CBF57
:1039500051F8043B40F8043BAFF30080D20724BF8A
:1039600011F8013B11F801CB48BF11F8012B24BF1E
:1039700000F8013B00F801CB48BF00F8012B70476D
:103980004FF0000200B5134694469646203922BFF8
:10399000A0E80C50A0E80C50B1F12001BFF4F7AF43
:1039A000090728BFA0E80C5048BF0CC05DF804EB25
:1039B000890028BF40F8042B08BF704748BF20F893
:1039C000022B11F0804F18BF00F8012B7047704791
:1039D00070477047704709684A0501D540B2704783
:1039E000C905FCD500B2704709684A0501D5C0B2C7
:1039F0007047C905FCD580B2704770B50C460546C6
:103A0000012A05D02878800600D5EA69002302E063
:103A1000012305E05B1C934202D2E05C0028F9D14F
:103A2000A869E618C01AA861286A184428622846BE
:103A3000FFF7D0FD04E0D5E9012114F8010B904710
:103A4000B442F8D32846FFF7DBFD70BD2DE9F047FF
:103A50000D4699469246044600F1240801688806FE
:103A600004D5E06921F01001216000E00120A842A6
:103A700001DD471B00E00027A1697A1902EB09006C
:103A8000081AA0612078C00602D42046FFF7A2FDE4
:103A9000002608E0D4E901211AF806009047206AC0
:103AA000401C761C20624E45F4DB2078C0060AD507
:103AB0002046FFF78FFD06E0D4E901213020904732
:103AC000206A401C2062381EA7F10107F4DC07E0E1
:103AD000D4E9012118F805009047206A401C2062B3
:103AE000281EA5F10105F3DC2046FFF789FD2078AB
:103AF000000602D50220BDE8F0870120FBE711682F
:103B00000268006A530501D508700AE0D30501D5A3
:103B1000088006E0130603D5C217C1E9000200E0E1
:103B200008600120704770472DE9FF4F0C461E4684
:103B30004FF0FF378BB0D2E90001DDF860800A90CA
:103B40008A46C1F30A5505B93D46002108464FF0A3
:103B50000000BAF1000F00F4400005DA00EB80002D
:103B60004FF4400101EA50004FEA9059B9F1010FBA
:103B700000DDB9460A9850EA4A000ED044F61050CB
:103B8000A5F2FF3545432F14B8F1000F1ED0754242
:103B9000291E1EDDC9F100021CE0B8F1010F4FF033
:103BA000000001D0302103E0F24305E02154401C25
:103BB000B042FBDB30460022002121540B99C1F8B2
:103BC0000880C1E900200FB0BDE8F08FBD1B6D1C5F
:103BD000DEE74A4600DA694206A800F09DFB06AB24
:103BE00093E8070003AB83E8070050460A9900F00A
:103BF0009DFC8DE80700A0F500501F380090039849
:103C0000002D09DD42F21F014A46084403A9039032
:103C1000684600F0FCFE08E0A0F500504A461F3858
:103C200003A90390684600F006FF8DE80700000432
:103C3000000C03D04FF0FF30410800E01046B8F10F
:103C4000000F03D00022009215461EE0751E05D419
:103C500000F0B0FA303262556D1EF9D5B34601223C
:103C6000084302D000227F1C04E02078302801D1D4
:103C700000227F1E002A099786D01DE0112D07DA49
:103C800000F098FA303262556D1C50EA0102F5D10D
:103C9000084302D00098C8B10EE00021681E05E07C
:103CA000235C625C63542254401E491C8142F7DB52
:103CB000AB46A81B401E0990002004F80B000B988F
:103CC000099AC0F80880C0E9002B7CE711264FF064
:103CD000000859E72DE9F04F88460446D21D22F02E
:103CE000070191B0D1E90001CDE90A0100F0D9FF47
:103CF00002460B98C00F01D02D2007E020688107F5
:103D000001D52B2002E0202101EAC000032A0990FE
:103D100001D0072A05DB03464146204600F090FA11
:103D20000BE12078800601D5E06900E00620B8F1BB
:103D3000650F814606D0B8F1660F18D0B8F1670F4D
:103D400070D131E00020B9F1110F009001DB112397
:103D500001E009F101030AAA01A90CA8FFF7E4FE9A
:103D6000DDE90C70002609F10105834647E00120DA
:103D70004B4600904FF000470AAA01A90CA8FFF794
:103D8000D3FEDDE90DB00C995D46002610B909F1AE
:103D900001000D18B9EB050003D4C0F1FF3609F19D
:103DA0000105A5EB09002BE0B9F1010F01DA4FF095
:103DB00001090020B9F1110F0090484601DD1123DF
:103DC00000E003460AAA01A90CA8FFF7ADFEDDE951
:103DD0000C704D4600268346207800070AD4AB4578
:103DE00000DA5D4601A8012D04DD411911F8011C1E
:103DF000302907D04F4502DA17F1040F04DA012009
:103E000082460FE06D1EEEE7002F02DCED1B3E4404
:103E100003E0781CA84200DD7D1CB81B00F1010AFC
:103E20004FF000472078000703D4AA4501DB4FF08C
:103E3000FF3A0021B7F1004F0DF143088DF8431010
:103E400024D002202B23002F01DA7F422D230A21C8
:103E5000021EA0F1010000DC5FB197FBF1FC97FBB3
:103E6000F1F201FB1C7C17460CF1300C08F801CD77
:103E7000EEE7A8F1010003702188090501D545216D
:103E800000E06521A0F1010800F8011C09980FA9C4
:103E9000A1EB0807FF1D00B10120411901EBEA70F9
:103EA000A1693844081A401EA0612078C00602D4D7
:103EB0002046FFF78FFB099828B1D4E901219047EC
:103EC000206A401C20622078C00622D52046FFF7D9
:103ED00081FB1EE0002E04DBB34502DD01A8805DFE
:103EE00000E03020D4E901219047206A401C206284
:103EF000761CAAF101005FEA000A0AD100F056F927
:103F0000C0680168405CD4E901219047206A401CE8
:103F10002062281EA5F10105DCDC07E0D4E90121BF
:103F200018F8010B9047206A401C2062381EA7F148
:103F30000107F3DC2046FFF763FB032011B043E6E3
:103F400001694A1C02610878704700B58FB0CDE95D
:103F500001310021059105497944CDE9031011464D
:103F60006846FFF7E5FB0FB000BD0000E5FFFFFF6F
:103F70000A6802F8010B0A6070470000074B70B531
:103F80000D467B44FFF7E1FF0446284600F032FA75
:103F900010B14FF0FF3070BD204670BD2DDAFFFF2D
:103FA0002DE9FF5F15468A460446DFF8AC80F844E9
:103FB0000027D8E900103E46CDE9001010E03AF89D
:103FC00016106A4602A800F019FA411C07D02178A1
:103FD000890603D5E269391891420DD80744761C49
:103FE0002078800602D5E069B84205DDAE42E6DB06
:103FF0003AF816000028E2D1A069C01BA061204653
:10400000FFF7E8FAD8E90010CDE90010002017E02A
:104010003AF818106A4602A800F0F0F9B0F1FF3F34
:1040200081460BD000250DF1080B05E0D4E90121F4
:104030001BF8050090476D1C4D45F7D308F10100B2
:10404000B0428046E4DB206A384420622046FFF715
:10405000D7FABDE8FF9F0000BE1700002DE9F04130
:104060008046D21D22F007020025D2E90002F52980
:1040700015A614D0011E72F1000106DA0023D0EB60
:10408000030063EB020211A608E0D8F800108B07CA
:1040900001D50FA602E0490701D50EA6012511465C
:1040A000002408F1240704E000F084F830323A5587
:1040B000641C50EA0102F7D12B46324621464046A5
:1040C000BDE8F041FFF7C2BC000000002D00000079
:1040D0002B0000002000000030B4002100F1240477
:1040E00008E002F00705D208303542EA4372DB08E7
:1040F0006554491C52EA0305F3D10468002310A259
:10410000250708D504F020040C4304D0C46901231A
:104110000CA2641EC46130BCFFF798BC10B5044605
:1041200021461068FFF760FC02462046BDE81040BB
:104130000023D1E7D21D22F00701D1E90023CBE70C
:10414000000000003000000010B5203AC0F00B80E5
:10415000B1E81850203AA0E81850B1E81850A0E88B
:104160001850BFF4F5AF5FEA027C24BFB1E81850E5
:10417000A0E8185044BF18C918C0BDE810405FEA55
:10418000827C24BF51F8043B40F8043B08BF7047D1
:10419000D20728BF31F8023B48BF11F8012B28BFD6
:1041A00020F8023B48BF00F8012B704700487047D9
:1041B000DC06002030B5B0F10A024FEA900E71F132
:1041C00000034EEA817EB0EB0E0061EB91014FEAF5
:1041D000101E4EEA017E10EB0E0041EB11114FEA6A
:1041E000102E4EEA016E10EB0E0041EB11214FEA4A
:1041F000104E4EEA014E10EB0E0041EB11414018FB
:1042000041F100014FEAD00040EA41704FEAD1018C
:1042100010EB80054FEA810444EA907444EB0104FA
:104220006D1944EB0404521BA3414FF0000348BF37
:104230000A3200D530BD401C41F1000130BD000004
:104240002DE9F0411F46044603260168072A01F4C0
:10425000006004DB08B116A505E016A503E008B16F
:1042600015A500E015A521F010002060A069C01E72
:10427000A0610FB1401EA0612046FFF7ABF94FB11E
:10428000D4E9012138469047206A401C2062C01CB6
:10429000206206E0206AFAE7D4E9012115F8010B53
:1042A0009047761EF8D22046FFF7AAF9BDE8F081C4
:1042B0004E414E006E616E00494E4600696E6600CA
:1042C00010B5436913B1AFF3008001E0FFF795FB30
:1042D000012010BD127800F124010A7000224A70FA
:1042E0000122EDE711684FF0FF32E9E710B54369AD
:1042F00013B1AFF3008001E0FFF752FE012010BDC3
:10430000128800F1240182840022C2840122EDE798
:1043100011684FF0FF32E9E72DE9F0478146164674
:104320008AB0334878440DC88DE80D003048784491
:10433000801C03AC0DC884E80D0041F69B30084496
:10434000372190FBF1F290FBF1F5A5F1800501FB1F
:1043500012041B3C02D56442012000E00020DFF87B
:1043600090A080460027FA44AAF1BE0A0DE0E007BB
:1043700009D03246684607EB47010AEB810100F09D
:104380005AFB8DE8070064107F1C002CEFD1184FFA
:104390007F44AC3F18E0E80714D007EB04100DF1A0
:1043A000180A90E80E008AE80E00C068F04201D1B9
:1043B00098190890324606A903A800F03CFB03AB0D
:1043C00083E807006D10641C002DE4D13246694675
:1043D000B8F1000F03A802D000F019FB01E000F0D3
:1043E0002AFBC9E90001C9F808200AB0BDE8F08736
:1043F000CC140000007B00F08000704770B51646BA
:104400000C46054600F044F8036893F801010128C2
:1044100006D0FF2C0FD8185D68B101202C7070BD3C
:10442000D3F807013246214603F207130344284616
:10443000BDE8704018474FF0FF3070BD004870472E
:10444000BC0600207546FFF7F9FFAE460500694639
:10445000534620F00700854618B020B5FDF788FBCD
:10446000BDE820404FF000064FF000074FF0000875
:104470004FF0000B21F00701AC46ACE8C009ACE8F6
:10448000C009ACE8C009ACE8C0098D46704700001F
:1044900010B5FFF78BFE001D10BD00BF69080000BE
:1044A0000446AFF300802046FBF7DFFE4FF0013CEF
:1044B00050F8042B51F8043B9A4221D1A2EB0C0393
:1044C000934313EACC1317D150F8042B51F8043B53
:1044D0009A4215D1A2EB0C03934313EACC130BD1F0
:1044E00050F8042B51F8043B9A4209D1A2EB0C037B
:1044F000934313EACC13DBD04FF00000704700BFAA
:10450000D01A01BAB1FA81F101F0180122FA01F0D2
:10451000CB40C1F12001DBB2C0B2C01A2CFA01F3CA
:10452000D11A914311EAC311E6D170475FEA400CFA
:1045300008BF91F0000F4FEA8C234FEAC12243EAF3
:1045400051514FEA1C5018BF00F5F0404FEA3000BF
:1045500018BF41F000415FEA6C5C00F02980BCF1BB
:10456000FF3F08BF40F080407047130C06BF1204A5
:104570004FF0100C4FF0000C130E04BF12020CF1A0
:10458000080C130F04BF12010CF1040C930F04BFAD
:1045900092000CF1020CD30F04BF52000CF1010C7D
:1045A00011464FF00002A0F11F00A0EB0C00704775
:1045B00011F0004F08BF704731F000413FF4D5AF14
:1045C0000B0C06BF09044FF0100C4FF0000C0B0E43
:1045D00004BF09020CF1080C0B0F04BF09010CF118
:1045E000040C8B0F04BF89000CF1020CCB0F04BF2D
:1045F00049000CF1010CCCF12003A0EB0C0022FAD5
:1046000003F302FA0CF241EA030100F101007047E2
:1046100020F07F4C80EA030023F07F47ACEB0703D8
:1046200003F57C5300F0004003F1FF032DE98049BE
:104630004FEA154B09B44FEA144325EA0B4E24EA1E
:1046400003480FF2042606EB132749083E785FEA79
:10465000320203FB0667C7F5000707FB06F64FEAC1
:1046600054374FEAD64606F1020607FB066CCCF13A
:10467000005C4FEA1C472CEA074C07FB06F40CFBD6
:1046800006F504EB15464FEA961634BF00204FF0AE
:1046900000404FEAD13706FB07FC4FEA1C4C0CFBED
:1046A0000BF7D21B03FB0CF761EB07010CFB0EF7BA
:1046B000B0EB074072EB17420CFB08F734BFA2EBDC
:1046C0000742B2EB074261EB17414FEA0C444FEA55
:1046D000910706FB07FC4FEA1C4C0CFB0BF7B0EBF9
:1046E000C74072EB573203FB0CF734BFA2EBC74253
:1046F000B2EBC74261EB57310CFB0EF7B0EBC700D2
:1047000072EB57720CFB08F734BFA2EBC702B2EB97
:10471000C70261EB5771039F4FEA816141EA921131
:1047200004EBCC044FEAD1374FEA826206FB07FC68
:1047300042EA90124FEA80604FEA1C4C0CFB0BF7E8
:10474000D21B03FB0CF761EB07010CFB0EF7B0EB80
:10475000074072EB17420CFB08F734BFA2EB07428D
:10476000B2EB074261EB17414FEA8C554FEA9107D4
:1047700004EB9C2406FB07FC4FEA1C4C0CFB0BF7DC
:10478000B0EBC74072EB573203FB0CF734BFA2EB20
:10479000C742B2EBC74261EB57310CFB0EF7B0EBEF
:1047A000C70072EB57720CFB08F734BFA2EBC702CD
:1047B000B2EBC70261EB577115EB4C254FEA8161F3
:1047C00041EA92114FEA82624FEAD13742EA9012EF
:1047D00006FB07FC44F100044FEA80604FEA1C4CE2
:1047E0000CFB0BF7D21B03FB0CF761EB07010CFB77
:1047F0000EF7B0EB074072EB17420CFB08F734BF23
:10480000A2EB0742B2EB074261EB174115EB1C1517
:104810004FEA813141EA92414FEA823242EA9042C4
:104820004FEA80304FEA0C7644F1000448EA034333
:104830004EEA0B484FF0000EB2EB080C71EB030789
:1048400024BF624639464EEB0E0E4FF0000B0018A7
:10485000524149414BEB0B0BB2EB080C71EB0307D8
:104860007BF1000B24BF624639464EEB0E0E4FF033
:10487000000B0018524149414BEB0B0BB2EB080CFB
:1048800071EB03077BF1000B24BF624639464EEB08
:104890000E0E51EA020718BF46F0010616EB0E761F
:1048A00055F1000254F1000103D5BDE88901BDE8CE
:1048B0000088BDE88901BDE80048B619524141EBC6
:1048C0000101A3F10103704780807F7E7D7C7B7AAC
:1048D0007978777676757473727171706F6E6E6DAC
:1048E0006C6C6B6A6A696868676666656464636352
:1048F00062616160605F5F5E5E5D5D5C5C5B5B5AD8
:104900005A59595858575756565555555454535344
:1049100052525251515050504F4F4F4E4E4D4D4D9F
:104920004C4C4C4B4B4B4A4A4A49494948484847EA
:104930004747474646464545454444444443434328
:104940004342424242414141002B26D4770021D0CC
:104950001CB54FEA370703B44FF010004FF01001B9
:104960004FF000000FBCBDE810400BF1010BBBF194
:10497000010F08BF5FEA170722BF12F1010211F110
:1049800001014FF0004143F1000300F0004043EA11
:1049900000007047F9D35708DAE746EA064613F1F4
:1049A000400F4FEA16461FDD13F1200FDFBF1643FD
:1049B0000A46002120335B42C8D0C3F1200746EAF3
:1049C000064602FA07F74FEA164646EA0706C3F11B
:1049D000200722FA03F201FA07F721FA03F14FF058
:1049E000000342EA0702B1E746EA020646EA064643
:1049F0004FEA164646EA0106BCBF46EA0646360CB2
:104A00004FF000034FF000024FF000019EE72DE948
:104A1000C048934630B491E8380007C831EA400CEA
:104A200048BF34EA430C03D5FFF7F2FDFFF78CFFD4
:104A3000F0BCBDE800882DE9C048934630B491E849
:104A4000380007C810F0804F08BF13F0804F03D123
:104A500000F005F8FFF778FFF0BCBDE8008820F013
:104A60007F4780EA030023F07F4C07EB0C03A3F59C
:104A70007C5300F00040A3F1FE0392F0000F00F021
:104A8000B38095F0000F00F077802DE901494FEADF
:104A900011404FEA144621EA004800FB06FC24EAD4
:104AA000064708FB06F607FB08F800FB07F718EBBC
:104AB00006484CEB164C4FEA124B18EB07484FEAEE
:104AC00015464CEB174022EA0B4E0BFB06FC25EA81
:104AD00006470EFB06F607FB0EFE0BFB07F71EEB69
:104AE000064E4CEB164C4FF000061EEB074E4CEBFF
:104AF000174B18EB0B0840F1000018EB0E0B58EBAE
:104B0000000840F100008F1A4FF000013CBFC9437C
:104B1000661B14BFB5EB040C00213CBFC943F61B58
:104B20004FEA17444EEA8E0E27EA04454FEA1C4727
:104B300004FB07622CEA074C05FB07F70CFB05F6A4
:104B400004FB0CFC16EB074642EB174216EB0C4637
:104B500042EB1C421BEB060658EB0202414146EABF
:104B60009E0601D5BDE80189B619524141EB01010C
:104B7000A3F10103BDE801894FEA14454FEA11474B
:104B800024EA054621EA074C05FB07F406FB07F774
:104B90000CFB06F105FB0CFC11EB074144EB174441
:104BA0004FEA124711EB0C4144EB1C4422EA074C3C
:104BB00005FB07F206FB07F70CFB06F605FB0CFCF2
:104BC00016EB074642EB174216EB0C4642EB1C4530
:104BD0006A1854F1000148BF7047B619524141EBC1
:104BE0000101A3F10103704795F0000F37D04FEAA0
:104BF00011424FEA144721EA024624EA074C02FB1D
:104C000007F106FB07F70CFB06F402FB0CFC14EBA8
:104C1000074441EB17414FEA154714EB0C4441EBB5
:104C20001C4125EA074C02FB07F506FB07F70CFBC6
:104C300006F602FB0CFC16EB074645EB174516EB98
:104C40000C4645EB1C42121951F1000148BF704758
:104C5000B619524141EB0101A3F1010370474FEA3C
:104C600014454FEA114724EA054621EA074C05FBA3
:104C700007F106FB07F70CFB06F24FF0000605FBF9
:104C80000CFC12EB074241EB174112EB0C4251EBCB
:104C90001C4148BF7047921841EB0101A3F1010389
:104CA0007047490050EAC12018BF04204A0D18BFC0
:104CB00040F0010040F2FF72B2EB515F08BF40F0DC
:104CC0000200012808BF0520704730380A2801D2A9
:104CD000012070470020704710B500290AD00878DD
:104CE000002807D005487844FFF7E0FB002801D0F2
:104CF000002010BD0248784410BD0000460B0000A3
:104D00003E0B000010B500290AD00878002807D013
:104D100005487844FFF7CAFB002801D0002010BDE9
:104D20000248784410BD0000360B00002E0B000036
:104D300021F00042A2F16052B2F5801F01F0004361
:104D400028BFD2F17F6C0BD95FEA001C43EAC20294
:104D500042EB507018BF704728BF20F00100704729
:104D6000B2F5801FBCBF184670474FEA410C1CF5D6
:104D7000001F02D2084600F062BC70B500F074F962
:104D800000000089FFF7F6BF4FF00040A0F580005B
:104D90007047000010B591EA030F48BF83F000434D
:104DA00000F1BE81841A71EB030C05D2121943EB9A
:104DB0000C03001B61EB0C01DFF824E14FEA1154F6
:104DC000A4EB135C1EEA430F18BF9EEA445F73D046
:104DD00023EA0E03DCF1200E21EA045143F4801390
:104DE00032D322FA0CFE10EB0E0023FA0CFE41EB3C
:104DF0000E01CCF1200E03FA0EFE10EB0E0051F165
:104E00000001B1F5801FCCF1200E32D201EB04512C
:104E100012FA0EF2BDE8104058BF7047401C38BF70
:104E20005FEA420218BF7047002814BF20F001005B
:104E300041F100014FEA410313F5001F38BF7047ED
:104E4000A1F1C04100F05EB9012A43EB0302ACF1CD
:104E5000200CDCF11F0E32BF4FF0000E23FA0CF3D2
:104E600010EB030041EB0451B4EB115FD0D0A1EB88
:104E7000045101F5801149085FEA300001EB04514B
:104E80000ED350F1000038BF12FA0EFE08D1BDE873
:104E90001040C9E7401C38BF5FEA4202CAD1C3E7ED
:104EA000BDE810404FEA410313F5001F38BF7047BB
:104EB000A1F1C04100F026B99EEA445F08D011EA92
:104EC0005E0FBDE8104004BF01F0004100207047B4
:104ED000BDE8104070B500F0C7F800BF64FBBE3EEF
:104EE0000000E0FF10F0004248BF4042B0FA80F3FB
:104EF00010FA03F10AD0C3F11D0303F580634FEAF2
:104F0000415002EB035202EBD12170474FF00000F9
:104F100070470000DFF848C170B51CEA111E1EBFC3
:104F20001CEA13159EEA0C0F95EA0C0F00F06F8037
:104F300081EA030423EA4C134EEAD47E21EA4C11A1
:104F400041F4801143F48013AE44A1FB024CA0FB5A
:104F50000365AEF17F7E361955EB0C05A1FB034CC2
:104F60004CF10003A0FB021C16EB0C06654153F14B
:104F70000003094218BF46F0010613F4007F0BD16D
:104F80004FEA03314FEA0530340341EA155140EA54
:104F900016506FF003020AE04FEAC3214FEAC52022
:104FA000F40241EA555140EA56506FF0020202EB1A
:104FB0002E4201EB025585EACE710AD05FEA440C1D
:104FC00018BF24F0004450F1000041F1000120EA34
:104FD000D47040F2FE7C624500D270BDA84214BF7E
:104FE0004FF080444FF04044002E08BF0024BEF133
:104FF000806FA8BFA1F1C041BDE8704080F28280FF
:105000004FF0000001F1C04101F0004170479EEAFD
:105010000C0F0CEA131518BF95EA0C0F06D04FF0D1
:10502000000081EA030E0EF0004170BD00F01CF894
:105030008900013E00F007B800F009B84FEA430CC0
:105040005FEA5C5C08D081EA030100F05BB84FEADC
:10505000410C5FEA5C5CF6D14FF0000001497047FB
:105060000000FF070000F87F0EF1020E2EF0030E85
:105070005EF8046B364205D4012A43EB030515F5AF
:10508000001F12D8012841EB010C1CF5001F0CD8A1
:105090000ED14FEAD17C15F5001F0CEB4C0C0CF136
:1050A000020C08BF4CEBD37C04E04FF0080C01E08D
:1050B0004FEAD37C0CEB4C0526FA05F606F0070602
:1050C000B6F1040C06D20EEB860CBDE870404CF035
:1050D000010C6047DFE80CF0090B02024FF00041C1
:1050E0004FF00000A1F5002170BD194610460128BF
:1050F00051EB010418BFD4F5001484BF002001F067
:10510000004170BD0808A0F500114FEA3101704759
:1051100010B591EA030F48BF83F000433FF542AE5C
:10512000841A71EB030C07D212198CF0004C43EB7C
:105130000C03001B61EB0C01DFF8A4E14FEA1154F2
:10514000A4EB135C1EEA430F18BF9EEA445F00F015
:10515000B08023EA6E03524221EA0451C3EB6E038E
:1051600038BF5B1EDCF1200E25D322FA0CFE10EBBB
:105170000E0043FA0CFE41EB0E01CCF1200E03FAB7
:105180000EFE10EB0E0051F10001CCF1200E29D4DF
:1051900012FA0EF201EB0451BDE8104058BF7047FF
:1051A000401C1CBFB2F1004F704700280CBF491CC7
:1051B00020F00100704712EB020E43EB030218BF10
:1051C0004FF0010E4EEA4202ACF1200CDCF11E0E53
:1051D00054D943FA0CFE10EB0E0051F1FF31CCF123
:1051E0001E0ED5D50EF1010E12FA0EFE404141EB16
:1051F000010101EB445C5FEA5C5C10D910EBDE70EE
:1052000001EB045138BFBEF1004FBDE8104018BF9C
:10521000704700280CBF491C20F00100704730D2B5
:105220004FEAD42C11F5001124F400641BD0B1FA1C
:1052300081F20B3AA41AA41ED2F12003914030FA55
:1052400003F31943904001EBCC71002C01EB0451A6
:10525000BDE81040A8BF704701F1C0414FF0000009
:1052600001F000417047B0FA80F310FA03F100D169
:1052700010BDE41A173C4805C90AE4E701EB0451E4
:1052800010BD491001EB0451BDE810404FEA300059
:1052900002E04FF0000170474A0008BF0042F8D01A
:1052A000B2F5001F28BF704701F000414FF0000029
:1052B00070479EEA445F07D011EA5E0FBDE81040D8
:1052C00004BF002100207047BDE8104070B5FFF713
:1052D000CBFE00BF40DFF63E83F000411046704732
:1052E0000000E0FF43004FEAD30C4FEA3C0C434080
:1052F0001FBF40070CF1605113F0FE4F70471CF0C8
:10530000006F03D100200CF0004170470CF0004307
:1053100043EA507010B540EACC0000F04AF900BFF3
:10532000000000924FEA0001FFF7ECBE4FF0004191
:105330004FF00000A1F500217047000090EA010F36
:1053400048BF81F0004100F18681421A3CBF801ABB
:1053500089184FEAD0524FF07F4C1CEA410FA2EB64
:10536000D15318BF9CEA026F00F03B804FF0004C15
:105370004CEA00204CEA012121FA03FC10EB0C0C52
:105380001ED202F1FF325FEA1C2040EBC25038BF50
:1053900070471CF07F0F4FEA400C18BFBCF17F4FE5
:1053A00038BF7047C3F12003994008BF20F00100C7
:1053B000BCF17F4F38BF7047A0F1C04000F03FB94B
:1053C0004FEA3C00000A40EBC25028BF1CF0FF0F20
:1053D0004FEA400CE6D018BFBCF17F4F38BF704792
:1053E000EAE79CEA026F05D010EA5C0F08BF00F004
:1053F0000040704710B500F0DCF800BF64FBBE3E13
:10540000401058BFC0F14040491058BFC1F1404161
:105410008142EFF30080704710F0004148BF4042E6
:10542000B0FA80F310FA03F2C3F19D030BD051EAF6
:10543000C35101EB1220530638BF704700F1010041
:1054400008BF20F00100704750EA010C00F1138002
:105450001CF5000F58BFBCF5000F01D488427047FF
:1054600007D710F5000F58BF11F5000F15D488426B
:105470007047894270471CF5000F04D5BCF5000F3A
:10548000F7D5814270474FF0807C1CEB400F38BF4E
:105490001CEB410F01D28142704710B500F089F832
:1054A000922449004FF000504FF08051FFF7A8BF01
:1054B0004FF47F0C1CEAD0121EBF1CEAD11392EAF3
:1054C0000C0F93EA0C0F00F0478090EA010F48BFE1
:1054D00042F480724FF0004C4CEA00204CEA01216B
:1054E00002EB0302A0FB0113A2F50002002918BF82
:1054F00043F001035B0028BF4FEA330342EB224233
:105500005FEA132C4CEBC2502EBFBCEB436FB2F5DD
:105510007C0F70474FEA036CBCF1004F08BF20F0CE
:105520000100B2F57C0F38BF70470BD582F0FF0247
:1055300012F5803FC8BF704700F1C040D8BF00F0EF
:105540000040704700F5000C5FEA4C0C48BF704704
:10555000B0F1C04000F073B890EA010F0CEAD1132B
:1055600048BF42F48072624538BF634504D280EA86
:10557000010000F00040704710B500F01AF800BFBD
:105580008900013E00F007B800F009B85FEA410C5D
:105590005FEA1C6C08D080EA010000F050B85FEAB6
:1055A000400C5FEA1C6CF6D14FF00040A0F5800083
:1055B00070470EF1020E2EF0030E5EF8044B2442EB
:1055C00004D44FEA4102B2F17F4F11D84FEA4003B1
:1055D000B3F17F4F0CD80ED14FEAD07CB2F17F4FA0
:1055E0000CEB4C0C0CF1020C08BF4CEBD17C04E032
:1055F0004FF0080C01E04FEAD17C0CEB4C0324FA8D
:1056000003F404F00704B4F1040C06D20EEB840C8E
:10561000BDE810404CF0010C6047DFE80CF00708D3
:1056200002024FF00040A0F5800010BD0846420085
:1056300018BFD2F1807288BF00F0004010BDFF217A
:1056400041EAD050C005704790EA010F48BF81F091
:1056500000413FF57AAE421A04D882F00042A0EB36
:10566000020011444FEAD0524FF07F4C1CEA410F28
:10567000A2EBD15318BF9CEA026F4AD04FF0004C06
:105680004CEA00204CEA012121FA03FCB0EB0C0C9F
:105690000FD412F0FE0F36D05FEA4C001DD5001279
:1056A00040EBC25038BF70471CF03F0F18BF704727
:1056B0000BE0A2F101025FEA1C2040EBC25038BFB0
:1056C00070471CF07F0F18BF7047C3F1200399404B
:1056D00014BF401E20F00100704780084FEA1223DB
:1056E00008BF7047B0FA80FCA2EB0C02CCF1280C8A
:1056F00060FA0CF093EA122F04BF00EBC25070471F
:105700004FEAC3707047130A5FEADC1008BF7047A6
:10571000F6E79CEA026F04D010EA5C0F08BF002095
:10572000704710B5FFF745FF40DFF63E81F00040BF
:105730007047FEF7CFBA3031323334353637383927
:1057400041424344454640305800303132333435CD
:10575000363738396162636465664030780004002A
:10576000000800000000000000020001000010001E
:10577000000000000000000002400000000000A047
:105780000000000005400000000000C8000000000C
:105790000C4000000000409C000000001940000088
:1057A0000020BCBE0000000034400000BFC91B8EBA
:1057B00000000004B5400000504BCFD06607E2CF98
:1057C000010000006C4100003E8251AADFEEA734C8
:1057D00001000000D9420000DCB5A0E23A301F977A
:1057E000FFFFFFFFB4450000FD25A0C8E9A3C14F9E
:1057F000FFFFFFFFFF3F00000000008000000000EF
:10580000FF3F000000000080000000005859000821
:1058100000000020600000006C010008B85900087A
:1058200060000020C00C0000880100081C0000007F
:1058300043000000F8FFFFFF0C0000000E00000016
:105840000F0000002E0000001001000043000000C7
:10585000F8FFFFFF00404040404040404040414191
:105860004141414040404040404040404040404035
:1058700040404040400502020202020202020202CF
:1058800002020202022020202020202020202002CC
:10589000020202020202909090909090101010105C
:1058A00010101010101010101010101010101010F8
:1058B000020202020202888888888888080808088C
:1058C0000808080808080808080808080808080858
:1058D0000202020240000000000000000000000080
:1058E00000000000000000000000000000000000B8
:1058F00000000000000000000000000000000000A8
:105900000000000000000000000000000000000097
:105910000000000000000000000000000000000087
:105920000000000000000000000000000000000077
:105930000000000000000000000000000000000067
:105940000000000000000000000000000000000057
:105950000000000000000000000000000000000047
:105960000000000000000000000000000000000037
:105970000000000000A24A04000000000000000037
:1059800001020304060708090000000000000000EF
:105990000000000000000000000000000000000007
:1059A00000000000000001020304010203040607D6
:0859B0000809020406080000CA
:0400000508000131BD
:00000001FF
